:020000040800F2
:1000000000800120213400087D0B0008830B0008CC
:10001000890B00088F0B0008950B000800000000FA
:100020000000000000000000000000009B0B000822
:10003000A90B000800000000B70B0008C50B000862
:1000400071340008713400087134000871340008FC
:1000500071340008713400087134000871340008EC
:1000600071340008713400087134000871340008DC
:1000700071340008713400087134000871340008CC
:100080007134000871340008D10B00080000000032
:1000900000000000000000000000000071340008B3
:1000A000713400087134000871340008713400089C
:1000B000713400087134000871340008713400088C
:1000C000713400087134000871340008713400087C
:1000D00071340008E50B0008F90B0008000000006F
:1000E0000D0C000871340008713400080000000095
:1000F0000000000000000000000000007134000853
:1001000000000000713400087134000871340008E8
:1001100000000000000000000000000000000000DF
:10012000713400087134000871340008713400081B
:100130007134000800000000000000000000000012
:100140000000000000000000000000007134000802
:1001500071340008713400087134000871340008EB
:100160007134000871340008000000000000000035
:10017000000000000000000000000000000000007F
:1001800000000000713400080000000000000000C2
:0401900071340008BE
:1001A00010B5054C237833B9044B13B10448AFF3B1
:1001B00000800123237010BD7000002000000000AB
:1001C0004444000808B5034B1BB103490348AFF38F
:1001D000008008BD000000007400002044440008B6
:1001E00001F0FF01102A2BDB10F0070F08D010F8E8
:1001F000013B013A8B422DD010F0070F42B3F6D1EC
:10020000F0B441EA012141EA014122F007047FF004
:1002100000070023F0E80256083C85EA010586EA5B
:10022000010685FA47F5A3FA87F586FA47F6A5FA97
:1002300087F68EB9EED1F0BC01F0FF0102F00702A3
:1002400032B110F8013B013A83EA010313B1F8D14E
:100250000020704701387047002D06BF354603382F
:10026000073815F0010F07D1013015F4807F02BF68
:10027000013015F4C03F0130F0BC0138704700BFB9
:1002800053B94AB9002908BF00281CBF4FF0FF31FD
:100290004FF0FF3000F07AB9ADF1080C6DE904CEF3
:1002A00000F006F8DDF804E0DDE9022304B0704751
:1002B0002DE9F0478C460D460446089E002B51D18F
:1002C0008A4217466DD9B2FA82FEBEF1000F0BD0FA
:1002D000CEF1200C01FA0EF520FA0CFC02FA0EF712
:1002E0004CEA050C00FA0EF44FEA174A250CBCFB49
:1002F000FAF81FFA87F90AFB18CC45EA0C4508FB07
:1003000009F3AB420AD9ED1908F1FF3280F02381DD
:10031000AB4240F22081A8F102083D44ED1AA4B29C
:10032000B5FBFAF00AFB105544EA054400FB09F955
:10033000A14509D9E41900F1FF3380F00A81A145F4
:1003400040F2078102383C44A4EB090440EA08402B
:100350000021002E61D024FA0EF400233460736073
:10036000BDE8F0878B4207D9002E54D0002186E8E3
:1003700021000846BDE8F087B3FA83F1002940F078
:100380008E80AB4202D3824200F2FA80841A65EB7F
:1003900003050120AC46002E3FD086E81010BDE8D2
:1003A000F08712B90127B7FBF2F7B7FA87FEBEF163
:1003B000000F34D1EB1B3A0C1FFA87FC0121B3FB71
:1003C000F2F8250C02FB183345EA03450CFB08F351
:1003D000AB4207D9ED1908F1FF3002D2AB4200F26F
:1003E000D1808046ED1AA3B2B5FBF2F002FB1055A6
:1003F00043EA05440CFB00FCA44507D9E41900F1CD
:10040000FF3302D2A44500F2B8801846A4EB0C04D6
:1004100040EA08409DE731463046BDE8F087CEF11E
:10042000200405FA0EF307FA0EF720FA04F83A0C46
:1004300025FA04F448EA0308B4FBF2F14FEA184540
:1004400002FB11441FFA87FC45EA044501FB0CF34B
:10045000AB4200FA0EF409D9ED1901F1FF3080F03A
:100460008A80AB4240F2878002393D44EB1A1FFA82
:1004700088F5B3FBF2F002FB103345EA034500FBBD
:100480000CF3AB4207D9ED1900F1FF386FD2AB4244
:100490006DD902383D44EB1A40EA01418FE7C1F1C2
:1004A000200722FA07F88B4005FA01F448EA030313
:1004B00020FA07FE4FEA134CFD404EEA040EB5FB4E
:1004C000FCF94FEA1E440CFB19551FFA83F844EA65
:1004D000054509FB08F4AC4202FA01F200FA01FA00
:1004E00008D9ED1809F1FF3043D2AC4241D9A9F146
:1004F00002091D442D1B1FFA8EFEB5FBFCF00CFB00
:1005000010554EEA054400FB08F8A04507D9E41849
:1005100000F1FF3529D2A04527D902381C4440EA12
:100520000940A4EB0804A0FB02894C45C6464D4691
:1005300015D312D056B1BAEB0E0364EB050404FADE
:1005400007F7CB401F43CC40376074600021BDE803
:10055000F0871846F8E69046E0E6C245EAD2B8EBE6
:10056000020E69EB03050138E4E72846D7E7404669
:1005700091E78146BEE7014678E702383C4445E70B
:10058000084608E7A8F102083D442BE7704700BF82
:1005900080B584B000AF78607B680A2B08D10D234A
:1005A000FB6007F10C0101230122074802F097F9D3
:1005B000391D01230122044802F091F90023184655
:1005C0001037BD4680BD00BF2801002080B588B02F
:1005D00000AF00F0CFFB00F06BF800F06FF900F017
:1005E00019F900F041F900F0C3F82B4B1B689B6828
:1005F0000021184602F088FF4FF48053BB611E2390
:100600007B610023FB770023BB77244A07F10C03AF
:1006100092E8030083E80300214800F061FC4FF4F6
:100620007A711F4800F043FD0346002B0ED11C4891
:1006300000F009FF02461B4B1A601A4B1B687A69CF
:1006400002FB03F2BB69B2FBF3F3FB77144800F043
:10065000FBFC7E233B71FF237B710623BB710623CA
:10066000FB7100233B7200237B72FB7FBB72EF2385
:10067000FB72FA7FBB7F9A42CED0FB7F19460A48B5
:1006800002F02AFF391D64230822084802F027F9E6
:10069000FB7FBB77C0E700BF0C000020644400086C
:1006A00098000020240100205C440008E0000020A5
:1006B00080B594B000AF07F1200330220021184626
:1006C00002F002FF07F10C0300221A605A609A60E0
:1006D000DA601A610023BB60234A234B1B6C43F092
:1006E00080531364204B1B6C03F08053BB60BB68CA
:1006F00000237B601D4A1D4B1B6823F4404343F4D9
:1007000000431360194B1B6803F440437B607B6814
:1007100002233B620123FB6210233B630023BB6384
:1007200007F12003184601F045FC0346002B01D0D9
:1007300000F020F90F23FB6000233B6100237B6165
:100740000023BB610023FB6107F10C030021184665
:1007500001F0A8FE0346002B01D000F00BF900BF0A
:100760005037BD4680BD00BF0038024000700040D9
:1007700080B584B000AF3B4600221A605A609A6090
:10078000DA60214B214A1A601F4B00225A601E4B2F
:1007900000229A601C4B00221A611B4B00221A7621
:1007A000194B002283F82020174B0022DA62164BE7
:1007B000174A9A62144B0022DA60134B0122DA6165
:1007C000114B002283F830200F4B01225A610E4852
:1007D00000F042FB0346002B01D000F0CBF80023D1
:1007E0003B6001237B600023BB603B461946064803
:1007F00000F054FE0346002B01D000F0BBF800BF10
:100800001037BD4680BD00BF980000200020014089
:100810000100000F80B500AF114B124A1A60104B57
:100820004FF416525A600E4B00229A600C4B002275
:10083000DA600B4B00221A61094B0C225A61084BFB
:1008400000229A61064B0022DA61054801F0FAFFA6
:100850000346002B01D000F08DF800BF80BD00BF23
:10086000E00000200010014080B500AF114B124A9B
:100870001A60104B4FF416525A600E4B00229A60C9
:100880000C4B0022DA600B4B00221A61094B0C2240
:100890005A61084B00229A61064B0022DA61054832
:1008A00001F0D0FF0346002B01D000F063F800BF39
:1008B00080BD00BF280100200044004080B588B002
:1008C00000AF07F10C0300221A605A609A60DA60E8
:1008D0001A610023BB60234A224B1B6B43F00403C5
:1008E0001363204B1B6B03F00403BB60BB68002346
:1008F0007B601C4A1B4B1B6B43F001031363194BBA
:100900001B6B03F001037B607B68012220211648EA
:1009100001F012FB4FF40053FB60144B3B610023CA
:100920007B6107F10C031946114801F083F920237C
:10093000FB6001233B6100237B610023BB6107F166
:100940000C031946084801F075F9002201212820FE
:1009500001F0A7F8282001F0C0F800BF2037BD46FD
:1009600080BD00BF0038024000000240000021109E
:100970000008024080B400AF72B6FEE780B483B0D6
:1009800000AF00237B60104A0F4B5B6C43F4804345
:1009900053640D4B5B6C03F480437B607B680023E6
:1009A0003B60094A084B1B6C43F080531364064BB1
:1009B0001B6C03F080533B603B6800BF0C37BD46A7
:1009C0005DF8047B704700BF0038024080B58AB0F4
:1009D00000AF786007F1140300221A605A609A6031
:1009E000DA601A617B681B681B4A93422FD100238F
:1009F0003B611A4A194B5B6C43F480735364174B89
:100A00005B6C03F480733B613B690023FB60134A1A
:100A1000124B1B6B43F001031363104B1B6B03F072
:100A20000103FB60FB6801237B610323BB6100239F
:100A3000FB6107F114031946094801F0FBF8002295
:100A40000221122001F02DF8122001F046F800BF1B
:100A50002837BD4680BD00BF00200140003802405D
:100A60000000024080B58CB000AF786007F11C0335
:100A700000221A605A609A60DA601A617B681B680B
:100A80003A4A934235D10023BB61394A384B5B6CFB
:100A900043F010035364364B5B6C03F01003BB61EF
:100AA000BB6900237B61324A314B1B6B43F001036E
:100AB00013632F4B1B6B03F001037B617B694FF4C6
:100AC000C063FB6102233B6200237B620323BB62A2
:100AD0000723FB6207F11C031946264801F0AAF818
:100AE00000220121252000F0DCFF252000F0F5FF89
:100AF00038E07B681B68204A934233D100233B6176
:100B00001B4A1B4B1B6C43F400331364184B1B6CC8
:100B100003F400333B613B690023FB60144A144B30
:100B20001B6B43F001031363114B1B6B03F00103B9
:100B3000FB60FB680C23FB6102233B6200237B62AA
:100B40000323BB620723FB6207F11C031946094814
:100B500001F070F800220121262000F0A2FF2620DB
:100B600000F0BBFF00BF3037BD4680BD0010014024
:100B700000380240000002400044004080B400AF52
:100B8000FEE780B400AFFEE780B400AFFEE780B4BC
:100B900000AFFEE780B400AFFEE780B400AF00BF57
:100BA000BD465DF8047B704780B400AF00BFBD4612
:100BB0005DF8047B704780B400AF00BFBD465DF8B0
:100BC000047B704780B500AF00F026F900BF80BD00
:100BD00080B500AF024800F0F5FA00BF80BD00BF4D
:100BE0009800002080B500AF024801F009FF00BF67
:100BF00080BD00BFE000002080B500AF024801F0DA
:100C0000FFFE00BF80BD00BF2801002080B500AFFF
:100C10004FF4005001F0AAF900BF80BD90B587B035
:100C200000AFF860B9607A6000237B610AE0BC68BD
:100C3000631CBB60AFF300800346DBB223707B69AB
:100C400001337B617A697B689A42F0DB7B681846E6
:100C50001C37BD4690BD80B586B000AFF860B96066
:100C60007A6000237B6109E0BB685A1CBA601B787C
:100C70001846FFF78DFC7B6901337B617A697B68DD
:100C80009A42F1DB7B6818461837BD4680BD0000EC
:100C900080B584B000AF7860114B1B68002B02D187
:100CA0000F4B104A1A600E4B1B68FB600C4B1A6806
:100CB0007B6813446A46934207D902F0DBFB024685
:100CC0000C2313604FF0FF3306E0054B1A687B6876
:100CD0001344034A1360FB6818461037BD4680BDB5
:100CE0008C0000207801002080B483B000AF7860D1
:100CF0004FF0FF3318460C37BD465DF8047B704754
:100D000080B483B000AF786039603B684FF4005224
:100D10005A60002318460C37BD465DF8047B7047C7
:100D200080B483B000AF7860012318460C37BD460D
:100D30005DF8047B704780B485B000AFF860B9609F
:100D40007A60002318461437BD465DF8047B70476F
:100D500080B400AF064A064BD3F8883043F47003E2
:100D6000C2F8883000BFBD465DF8047B704700BF05
:100D700000ED00E080B500AF0E4A0E4B1B6843F457
:100D8000007313600B4A0B4B1B6843F480631360C2
:100D9000084A084B1B6843F480731360032000F07B
:100DA00075FE002000F008F8FFF7E8FD0023184664
:100DB00080BD00BF003C024080B582B000AF7860CB
:100DC000124B1A68124B1B7819464FF47A73B3FB17
:100DD000F1F3B2FBF3F3184600F08DFE0346002B4F
:100DE00001D001230EE07B680F2B0AD8002279681E
:100DF0004FF0FF3000F055FE064A7B681360002379
:100E000000E0012318460837BD4680BD00000020E1
:100E1000080000200400002080B400AF064B1B78BF
:100E20001A46064B1B681344044A136000BFBD46B4
:100E30005DF8047B704700BF0800002070010020AF
:100E400080B400AF034B1B681846BD465DF8047BB9
:100E5000704700BF7001002080B584B000AF78609B
:100E60000023FB737B68002B01D1012333E07B68F7
:100E70001B6C002B09D17868FFF7A8FD7B68002266
:100E80005A647B68002283F83C207B681B6C03F06B
:100E90001003002B18D17B681B6C23F4885323F0BC
:100EA000020343F002027B681A64786800F01AFCBF
:100EB0007B6800225A647B681B6C23F0030343F0B9
:100EC00001027B681A6401E00123FB737B68002246
:100ED00083F83C20FB7B18461037BD4680BD0000E0
:100EE00080B485B000AF78600023BB607B6893F866
:100EF0003C30012B01D1022397E07B68012283F86B
:100F00003C207B681B689B6803F00103012B18D011
:100F10007B681B687A681268926842F001029A60E6
:100F2000454B1B68454AA2FB03239A0C13465B0002
:100F30001344BB6002E0BB68013BBB60BB68002B95
:100F4000F9D17B681B689B6803F00103012B5FD11B
:100F50007B681B6C23F4E06323F0010343F480728D
:100F60007B681A647B681B685B6803F48063002BF2
:100F700007D07B681B6C23F4405343F480527B689A
:100F80001A647B681B6C03F48053B3F5805F06D151
:100F90007B685B6C23F006027B685A6402E07B6826
:100FA00000225A647B68002283F83C20244BFB60BB
:100FB0007B681B686FF022021A60FB685B6803F0B5
:100FC0001F03002B0FD17B681B689B6803F0405305
:100FD000002B29D17B681B687A681268926842F0FE
:100FE00080429A6020E07B681B68164A93421BD1BE
:100FF0007B681B689B6803F04053002B14D17B680F
:101000001B687A681268926842F080429A600BE02E
:101010007B681B6C43F010027B681A647B685B6C16
:1010200043F001027B685A64002318461437BD461A
:101030005DF8047B704700BF0000002083DE1B4387
:10104000002301400020014080B483B000AF7860ED
:101050007B6893F83C30012B01D1022321E07B68AF
:10106000012283F83C207B681B687A6812689268CA
:1010700022F001029A607B681B689B6803F0010301
:10108000002B09D17B681B6C23F4885323F00103E8
:1010900043F001027B681A647B68002283F83C20DD
:1010A000002318460C37BD465DF8047B704780B5B9
:1010B00084B000AF786039600023FB607B681B68F8
:1010C0009B6803F48063B3F5806F13D17B681B6862
:1010D0009B6803F48073B3F5807F0BD17B681B6C36
:1010E00043F020027B681A647B68002283F83C206E
:1010F000012363E0FFF7A4FEF86021E03B68B3F151
:10110000FF3F1DD03B68002B07D0FFF799FE02463A
:10111000FB68D21A3B689A4212D97B681B681B682D
:1011200003F00203022B0BD07B681B6C43F004021C
:101130007B681A647B68002283F83C2003233DE02F
:101140007B681B681B6803F00203022BD6D17B6807
:101150001B686FF012021A607B681B6C43F400720C
:101160007B681A647B681B689B6803F04053002B04
:1011700023D17B681B7E002B1FD17B681B68DB6A39
:1011800003F47003002B06D07B681B689B6803F494
:101190008063002B11D17B681B6C23F480727B6809
:1011A0001A647B681B6C03F48053002B05D17B68A9
:1011B0001B6C43F001027B681A6400231846103749
:1011C000BD4680BD80B584B000AF78600023FB6071
:1011D0000023BB607B681B681B6803F00203022BC3
:1011E0000CBF01230023DBB2FB607B681B685B68DC
:1011F00003F02003202B0CBF01230023DBB2BB60D4
:10120000FB68002B49D0BB68002B46D07B681B6C69
:1012100003F01003002B05D17B681B6C43F40072B4
:101220007B681A647B681B689B6803F04053002B43
:101230002BD17B681B7E002B27D17B681B68DB6A68
:1012400003F47003002B06D07B681B689B6803F4D3
:101250008063002B19D17B681B687A68126852681A
:1012600022F020025A607B681B6C23F480727B683A
:101270001A647B681B6C03F48053002B05D17B68D8
:101280001B6C43F001027B681A64786800F0E8F890
:101290007B681B686FF012021A607B681B681B6812
:1012A00003F00403042B0CBF01230023DBB2FB601B
:1012B0007B681B685B6803F08003802B0CBF0123F5
:1012C0000023DBB2BB60FB68002B57D0BB68002B50
:1012D00054D07B681B6C03F01003002B05D17B6896
:1012E0001B6C43F400527B681A647B681B689B6824
:1012F00003F44013002B39D17B681B689B6B03F40C
:101300004013002B06D07B681B689B6803F4806346
:10131000002B2BD17B681B685B6803F48063002B78
:1013200024D17B681B689B6803F04053002B1DD1C0
:101330007B681B7E002B19D17B681B687A6812685A
:10134000526822F080025A607B681B6C23F4805242
:101350007B681A647B681B6C03F48073002B05D1D7
:101360007B681B6C43F001027B681A64786800F0AC
:10137000B5FA7B681B686FF00C021A607B681B680B
:101380001B6803F00103012B0CBF01230023DBB218
:10139000FB607B681B685B6803F04003402B0CBF5D
:1013A00001230023DBB2BB60FB68002B17D0BB68B6
:1013B000002B14D07B681B681B6803F00103012B12
:1013C0000DD17B681B6C43F480327B681A647868AB
:1013D00000F050F87B681B686FF001021A607B68B0
:1013E0001B681B6803F02003202B0CBF0123002384
:1013F000DBB2FB607B681B685B6803F08063B3F162
:10140000806F0CBF01230023DBB2BB60FB68002BA5
:1014100015D0BB68002B12D07B685B6C43F00202D6
:101420007B685A647B681B686FF020021A607868DA
:1014300000F02AF87B681B686FF020021A6000BF7A
:101440001037BD4680BD80B483B000AF78607B6844
:101450001B68DB6C18460C37BD465DF8047B704793
:1014600080B483B000AF786000BF0C37BD465DF834
:10147000047B704780B483B000AF786000BF0C3746
:10148000BD465DF8047B704780B483B000AF7860E0
:1014900000BF0C37BD465DF8047B704790B484B044
:1014A00000AF786039600023BB607B6893F83C3004
:1014B000012B01D1022307E17B68012283F83C2044
:1014C0003B681B68092B26D97B681A687B681B68F8
:1014D000D9683B681B689BB2184603465B0003440F
:1014E0001E3B072000FA03F3DB430B40D3607B680D
:1014F0001A687B681B68D9683B6898683B681B68FA
:101500009BB21C4623465B0023441E3B00FA03F3B8
:101510000B43D36023E07B681A687B681B681969FA
:101520003B681B689BB2184603465B0003440720D8
:1015300000FA03F3DB430B4013617B681A687B6896
:101540001B6819693B6898683B681B689BB21C461E
:1015500023465B00234400FA03F30B4313613B680B
:101560005B68062B24D87B6819687B681B68586BFE
:101570003B685A6813469B001344053B1F2202FA3E
:1015800003F3DB4303404B637B6819687B681B688C
:10159000586B3B681B689BB21C463B685A681346F5
:1015A0009B001344053B04FA03F303434B634CE0F5
:1015B0003B685B680C2B24D87B6819687B681B68C8
:1015C000186B3B685A6813469B001344233B1F2249
:1015D00002FA03F3DB4303400B637B6819687B6803
:1015E0001B68186B3B681B689BB21C463B685A68BB
:1015F00013469B001344233B04FA03F303430B639A
:1016000023E07B6819687B681B68D86A3B685A6866
:1016100013469B001344413B1F2202FA03F3DB43B2
:101620000340CB627B6819687B681B68D86A3B689B
:101630001B689BB21C463B685A6813469B001344C8
:10164000413B04FA03F30343CB62224BFB607B680C
:101650001B68214A934209D13B681B68122B05D1B4
:10166000FB685B6843F48002FB685A607B681B6818
:10167000194A934223D13B681B68102B03D03B6867
:101680001B68112B1BD1FB685B6843F40002FB68ED
:101690005A603B681B68102B11D1104B1B68104A15
:1016A000A2FB03239A0C13469B0013445B00BB6010
:1016B00002E0BB68013BBB60BB68002BF9D17B68D3
:1016C000002283F83C20002318461037BD4690BC0A
:1016D000704700BF002301400020014000000020AF
:1016E00083DE1B4380B485B000AF7860794BFB602C
:1016F000FB685B6823F44032FB685A60FB685A68F9
:101700007B685B681A43FB685A607B681B687A6871
:101710001268526822F480725A607B681B687A688B
:10172000126851687A68126912020A435A607B682B
:101730001B687A681268526822F040725A607B68AF
:101740001B687A68126851687A6892680A435A601E
:101750007B681B687A681268926822F400629A605B
:101760007B681B687A68126891687A68D2680A4355
:101770009A607B689B6A584A934222D07B681B68B8
:101780007A681268926822F070629A607B681B68BF
:101790007A68126891687A68926A0A439A607B68EC
:1017A0001B687A681268926822F040529A607B68DF
:1017B0001B687A68126891687A68D26A0A439A60EC
:1017C0000FE07B681B687A681268926822F070628A
:1017D0009A607B681B687A681268926822F04052AF
:1017E0009A607B681B687A681268926822F002022D
:1017F0009A607B681B687A68126891687A68127EC2
:1018000052000A439A607B6893F82030002B1BD06B
:101810007B681B687A681268526842F400625A60FA
:101820007B681B687A681268526822F460425A60CA
:101830007B681B687A68126851687A68526A013A54
:1018400052030A435A6007E07B681B687A68126893
:10185000526822F400625A607B681B687A681268DA
:10186000D26A22F47002DA627B681B687A681268B6
:10187000D16A7A68D269013A12050A43DA627B6852
:101880001B687A681268926822F400729A607B681A
:101890001B687A68126891687A6892F83020520260
:1018A0000A439A607B681B687A681268926822F41F
:1018B00080629A607B681B687A68126891687A68AF
:1018C000526992020A439A6000BF1437BD465DF820
:1018D000047B7047002301400100000F80B483B0F7
:1018E00000AF786000BF0C37BD465DF8047B7047E1
:1018F00080B485B000AF78607B6803F00703FB60BD
:101900000C4BDB68BB60BA684FF6FF031340BB604B
:10191000FB681A02BB68134343F0BF6343F4003310
:10192000BB60044ABB68D36000BF1437BD465DF896
:10193000047B704700ED00E080B400AF044BDB682F
:101940001B0A03F007031846BD465DF8047B704789
:1019500000ED00E080B483B000AF0346FB7197F95F
:101960000730002B0BDB094997F907305B09FA793F
:1019700002F01F02012000FA02F241F8232000BF0A
:101980000C37BD465DF8047B704700BF00E100E006
:1019900080B483B000AF03463960FB7197F907301C
:1019A000002B0ADB0D4997F907303A68D2B21201D1
:1019B000D2B20B4483F800230AE00949FB7903F013
:1019C0000F03043B3A68D2B21201D2B20B441A762A
:1019D00000BF0C37BD465DF8047B704700E100E0B6
:1019E00000ED00E080B489B000AFF860B9607A60C3
:1019F000FB6803F00703FB61FB69C3F10703042BDA
:101A000028BF0423BB61FB690433062B02D9FB69A1
:101A1000033B00E000237B610122BB6902FA03F370
:101A20005A1EBB681A407B699A4001217B6901FA02
:101A300003F3591E7B680B40134318462437BD46F9
:101A40005DF8047B7047000080B582B000AF78601D
:101A50007B68013BB3F1807F01D301230FE00A4A89
:101A60007B68013B53600F214FF0FF30FFF790FF81
:101A7000054B00229A60044B07221A600023184687
:101A80000837BD4680BD00BF10E000E080B582B0E1
:101A900000AF78607868FFF72BFF00BF0837BD46BE
:101AA00080BD80B586B000AF0346B9607A60FB7335
:101AB00000237B61FFF740FF78617A68B968786935
:101AC000FFF790FF024697F90F3011461846FFF7CF
:101AD0005FFF00BF1837BD4680BD80B582B000AF44
:101AE0000346FB7197F907301846FFF733FF00BF35
:101AF0000837BD4680BD80B582B000AF7860786899
:101B0000FFF7A2FF034618460837BD4680BD80B5E3
:101B100084B000AF78607B689B6DFB60FFF790F945
:101B2000B8607B6893F83530DBB2022B08D07B6855
:101B300080225A657B68002283F83420012352E01A
:101B40007B681B687A681268126822F016021A60B5
:101B50007B681B687A681268526922F080025A61B9
:101B60007B681B6C002B03D17B689B6C002B07D020
:101B70007B681B687A681268126822F008021A6093
:101B80007B681B687A681268126822F001021A608A
:101B900013E0FFF755F90246BB68D31A052B0CD9A1
:101BA0007B6820225A657B68002283F834207B689A
:101BB000032283F83520032315E07B681B681B682C
:101BC00003F00103002BE4D17B68DB6D3F229A40D8
:101BD000FB689A607B68002283F834207B680122CE
:101BE00083F83520002318461037BD4680BD80B4E9
:101BF00083B000AF78607B6893F83530DBB2022B9E
:101C000004D07B6880225A6501230CE07B680522A2
:101C100083F835207B681B687A681268126822F0A6
:101C200001021A60002318460C37BD465DF8047B9C
:101C30007047000080B489B000AF7860396000233D
:101C40007B6100233B610023BB610023FB6159E101
:101C50000122FB6902FA03F37B613B681A687B6926
:101C600013403B613A697B699A4240F048813B6886
:101C70005B6803F00303012B05D03B685B6803F04E
:101C80000303022B30D17B689B68BB61FB695B005F
:101C9000032202FA03F3DB43BA691340BB613B68DA
:101CA000DA68FB695B0002FA03F3BA691343BB61AC
:101CB0007B68BA699A607B685B68BB610122FB69DB
:101CC00002FA03F3DB43BA691340BB613B685B680C
:101CD0001B0903F00102FB6902FA03F3BA6913431B
:101CE000BB617B68BA695A603B685B6803F00303B9
:101CF000032B17D07B68DB68BB61FB695B000322A9
:101D000002FA03F3DB43BA691340BB613B689A688C
:101D1000FB695B0002FA03F3BA691343BB617B689A
:101D2000BA69DA603B685B6803F00303022B23D1D6
:101D3000FB69DA087B68083253F82230BB61FB6923
:101D400003F007039B000F2202FA03F3DB43BA6997
:101D50001340BB613B681A69FB6903F007039B00F2
:101D600002FA03F3BA691343BB61FB69DA087B68C3
:101D70000832B96943F822107B681B68BB61FB69B4
:101D80005B00032202FA03F3DB43BA691340BB6131
:101D90003B685B6803F00302FB695B0002FA03F334
:101DA000BA691343BB617B68BA691A603B685B68B8
:101DB00003F08053002B00F0A2800023FB60564A02
:101DC000554B5B6C43F480435364534B5B6C03F49F
:101DD0008043FB60FB68514AFB699B08023352F861
:101DE0002330BB61FB6903F003039B000F2202FA5F
:101DF00003F3DB43BA691340BB617B68484A9342F3
:101E000019D07B68474A934213D07B68464A934275
:101E10000DD07B68454A934207D07B68444A934281
:101E200001D1042308E0072306E0032304E0022392
:101E300002E0012300E00023FA6902F003029200AD
:101E40009340BA691343BB613449FB699B08023371
:101E5000BA6941F82320374B1B68BB613B69DB4300
:101E6000BA691340BB613B685B6803F48033002BA5
:101E700003D0BA693B691343BB612E4ABB69136047
:101E80002C4B5B68BB613B69DB43BA691340BB61A8
:101E90003B685B6803F40033002B03D0BA693B69ED
:101EA0001343BB61234ABB695360224B9B68BB61F0
:101EB0003B69DB43BA691340BB613B685B6803F471
:101EC0008013002B03D0BA693B691343BB61194AE5
:101ED000BB699360174BDB68BB613B69DB43BA6945
:101EE0001340BB613B685B6803F40013002B03D015
:101EF000BA693B691343BB610E4ABB69D360FB6996
:101F00000133FB61FB690F2B7FF6A2AE00BF2437C4
:101F1000BD465DF8047B7047003802400038014040
:101F2000000002400004024000080240000C024091
:101F300000100240003C014080B483B000AF7860E4
:101F40000B467B8013467B707B78002B03D07A880E
:101F50007B689A6103E07B881A047B689A6100BF02
:101F60000C37BD465DF8047B7047000080B582B039
:101F700000AF0346FB80084B5A69FB881340002BD7
:101F800006D0054AFB885361FB88184600F006F826
:101F900000BF0837BD4680BD003C014080B483B01F
:101FA00000AF0346FB8000BF0C37BD465DF8047BE5
:101FB0007047000080B586B000AF78607B68002B6A
:101FC00001D1012364E27B681B6803F00103002B4D
:101FD00075D0A34B9B6803F00C03042B0CD0A04BD3
:101FE0009B6803F00C03082B12D19D4B5B6803F434
:101FF0008003B3F5800F0BD1994B1B6803F40033BA
:10200000002B5BD07B685B68002B57D101233FE23C
:102010007B685B68B3F5803F06D1914A904B1B68A3
:1020200043F4803313601DE07B685B68B3F5A02F39
:102030000CD18B4A8A4B1B6843F480231360884A77
:10204000874B1B6843F4803313600BE0844A844B56
:102050001B6823F480331360814A814B1B6823F48F
:10206000802313607B685B68002B13D0FEF7E8FECB
:10207000386108E0FEF7E4FE02463B69D31A642BA0
:1020800001D9032304E2764B1B6803F40033002BD1
:10209000F0D014E0FEF7D4FE386108E0FEF7D0FE81
:1020A00002463B69D31A642B01D90323F0E16C4B40
:1020B0001B6803F40033002BF0D100E000BF7B6805
:1020C0001B6803F00203002B63D0654B9B6803F091
:1020D0000C03002B0BD0624B9B6803F00C03082B06
:1020E0001CD15F4B5B6803F48003002B16D15C4B63
:1020F0001B6803F00203002B05D07B68DB68012B13
:1021000001D00123C4E15649554B1B6823F0F80266
:102110007B681B69DB0013430B603AE07B68DB687C
:10212000002B20D04F4B01221A60FEF789FE386148
:1021300008E0FEF785FE02463B69D31A022B01D95F
:102140000323A5E1464B1B6803F00203002BF0D0EC
:102150004349434B1B6823F0F8027B681B69DB0093
:1021600013430B6015E03F4B00221A60FEF768FE38
:10217000386108E0FEF764FE02463B69D31A022B81
:1021800001D9032384E1364B1B6803F00203002BC3
:10219000F0D17B681B6803F00803002B30D07B680C
:1021A0005B69002B16D0304B01221A60FEF748FE07
:1021B000386108E0FEF744FE02463B69D31A022B61
:1021C00001D9032364E1264B5B6F03F00203002B6C
:1021D000F0D015E0244B00221A60FEF731FE386182
:1021E00008E0FEF72DFE02463B69D31A022B01D907
:1021F00003234DE11A4B5B6F03F00203002BF0D178
:102200007B681B6803F00403002B00F0A080002310
:10221000FB75134B1B6C03F08053002B0FD1002375
:10222000BB600F4A0E4B1B6C43F0805313640C4B86
:102230001B6C03F08053BB60BB680123FB750B4B29
:102240001B6803F48073002B21D1084A074B1B68DD
:1022500043F480731360FEF7F3FD386111E000BFB3
:102260000038024000004742800E474200700040A4
:10227000FEF7E6FD02463B69D31A022B01D9032380
:1022800006E1854B1B6803F48073002BF0D07B685C
:102290009B68012B06D1814A804B1B6F43F00103E1
:1022A00013671CE07B689B68052B0CD17B4A7B4B3A
:1022B0001B6F43F004031367784A784B1B6F43F09E
:1022C000010313670BE0754A744B1B6F23F0010386
:1022D0001367724A714B1B6F23F0040313677B680B
:1022E0009B68002B15D0FEF7ABFD38610AE0FEF7C6
:1022F000A7FD02463B69D31A41F28832934201D9C5
:102300000323C5E0654B1B6F03F00203002BEED0E7
:1023100014E0FEF795FD38610AE0FEF791FD0246F4
:102320003B69D31A41F28832934201D90323AFE0CB
:102330005A4B1B6F03F00203002BEED1FB7D012BE8
:1023400005D1564A554B1B6C23F0805313647B68B0
:102350009B69002B00F09B80504B9B6803F00C03A3
:10236000082B5CD07B689B69022B41D14C4B00222F
:102370001A60FEF765FD386108E0FEF761FD024670
:102380003B69D31A022B01D9032381E0434B1B681D
:1023900003F00073002BF0D140497B68DA697B6859
:1023A0001B6A1A437B685B6A9B011A437B689B6AC2
:1023B0005B08013B1B041A437B68DB6A1B06134363
:1023C0004B60374B01221A60FEF73AFD386108E096
:1023D000FEF736FD02463B69D31A022B01D90323CF
:1023E00056E02E4B1B6803F00073002BF0D04EE03C
:1023F0002B4B00221A60FEF723FD386108E0FEF740
:102400001FFD02463B69D31A022B01D903233FE08B
:10241000224B1B6803F00073002BF0D137E07B6880
:102420009B69012B01D1012332E01C4B5B68FB60EF
:102430007B689B69012B28D0FB6803F480027B68D2
:10244000DB699A4221D1FB6803F03F027B681B6A7B
:102450009A421AD1FA6847F6C07313407A68526AF2
:102460009201934211D1FB6803F440327B689B6A6E
:102470005B08013B1B049A4207D1FB6803F07062C2
:102480007B68DB6A1B069A4201D0012300E000232F
:1024900018461837BD4680BD007000400038024025
:1024A0006000474280B584B000AF786039607B68D7
:1024B000002B01D10123CCE0684B1B6803F007021D
:1024C0003B689A420CD2654B3A68D2B21A70634BA1
:1024D0001B6803F007023B689A4201D00123B8E071
:1024E0007B681B6803F00203002B20D07B681B680D
:1024F00003F00403002B05D0594A594B9B6843F461
:10250000E05393607B681B6803F00803002B05D041
:10251000534A534B9B6843F4604393605049504B7C
:102520009B6823F0F0027B689B6813438B607B6899
:102530001B6803F00103002B44D07B685B68012B10
:1025400007D1474B1B6803F40033002B19D101233B
:102550007FE07B685B68022B03D07B685B68032BA2
:1025600007D13F4B1B6803F00073002B09D10123F7
:102570006FE03B4B1B6803F00203002B01D10123EA
:1025800067E03749364B9B6823F003027B685B6842
:1025900013438B60FEF754FCF8600AE0FEF750FC32
:1025A0000246FB68D31A41F28832934201D90323D1
:1025B0004FE02B4B9B6803F00C027B685B689B0031
:1025C0009A42EBD1254B1B6803F007023B689A4205
:1025D0000CD9224B3A68D2B21A70204B1B6803F018
:1025E00007023B689A4201D0012332E07B681B68F6
:1025F00003F00403002B08D01949194B9B6823F4FE
:10260000E0527B68DB6813438B607B681B6803F0D8
:102610000803002B09D01249114B9B6823F4604238
:102620007B681B69DB0013438B6000F021F80146D7
:102630000B4B9B681B0903F00F030A4AD35C21FA7A
:1026400003F3094A1360094B1B681846FEF7B4FBF5
:10265000002318461037BD4680BD00BF003C024035
:10266000003802406C4400080000002004000020F4
:102670002DE9F04F87B000AF0022FA6000227A61A6
:102680000022BA6000223A61514A926802F00C02BC
:10269000042A07D0082A08D0002A40F090804D4B29
:1026A0003B618FE04C4B3B618CE0494A526802F041
:1026B0003F02FA60464A526802F48002002A23D0A0
:1026C000434B5B689B094FF0000440F2FF114FF051
:1026D000000203EA010304EA02043F4A02FB04F198
:1026E000002202FB03F20A443B49A3FB01015318F9
:1026F0001946FB684FF000041A462346FDF7C0FD5B
:1027000003460C467B614CE0314A526892091146FF
:102710004FF0000240F2FF154FF0000605EA0105F8
:1027200006EA0206294632464FEA421B4BEAD16BC3
:102730004FEA411A51465A46AA46B34655465E46A6
:102740004D1B62EB060629463246940144EA916429
:102750008B015B1A64EB02044FEAC40949EA53791E
:102760004FEAC30843464C4655465E46ED1846EBD5
:1027700004062B463446A2027A607A6842EA9352F3
:102780007A609B023B6097E8180018462146FB6878
:102790004FF000041A462346FDF772FD03460C462F
:1027A0007B610B4B5B681B0C03F0030301335B0085
:1027B000BB607A69BB68B2FBF3F33B6102E0054B97
:1027C0003B6100BF3B6918461C37BD46BDE8F08F32
:1027D000003802400024F40040787D0180B400AF4E
:1027E000034B1B681846BD465DF8047B704700BF6D
:1027F0000000002080B500AFFFF7F0FF0146054B59
:102800009B689B0A03F00703034AD35C21FA03F396
:10281000184680BD003802407C44000880B500AFF7
:10282000FFF7DCFF0146054B9B685B0B03F00703DA
:10283000034AD35C21FA03F3184680BD00380240F6
:102840007C44000880B582B000AF78607B68002BC4
:1028500001D101233FE07B6893F83D30DBB2002BD0
:1028600006D17B68002283F83C207868FEF7FAF8EE
:102870007B68242283F83D207B681B687A68126895
:10288000D26822F40052DA60786800F019FC7B68A4
:102890001B687A681268126922F490421A617B6898
:1028A0001B687A681268526922F02A025A617B68B2
:1028B0001B687A681268D26842F40052DA607B685A
:1028C00000221A647B68202283F83D207B68202246
:1028D00083F83E20002318460837BD4680BD80B5EA
:1028E0008AB002AFF860B9603B601346FB800023FA
:1028F0007B61FB6893F83D30DBB2202B7BD1BB685A
:10290000002B02D0FB88002B01D1012374E0FB686F
:1029100093F83C30012B01D102236DE0FB680122CA
:1029200083F83C20FB6800221A64FB68212283F8AC
:102930003D20FEF785FA7861FB68FA889A84FB6887
:10294000FA88DA84FB689B68B3F5805F08D1FB687E
:102950001B69002B04D10023FB61BB68BB6103E052
:10296000BB68FB610023BB61FB68002283F83C204D
:1029700029E03B6800937B6900228021F86800F021
:1029800015FA0346002B01D0032335E0FB69002B29
:102990000AD1FB681B68BA691288C2F308025A6040
:1029A000BB690233BB6107E0FB681B68FA691278F8
:1029B0005A60FB690133FB61FB68DB8C9BB2013B16
:1029C0009AB2FB68DA84FB68DB8C9BB2002BD0D117
:1029D0003B6800937B6900224021F86800F0E6F92B
:1029E0000346002B01D0032306E0FB68202283F876
:1029F0003D20002300E0022318462037BD4680BD5D
:102A000080B58AB000AF78607B681B681B687B620A
:102A10007B681B68DB683B627B681B685B69FB61EA
:102A20000023BB6100237B617B6A03F00F03BB6162
:102A3000BB69002B0DD17B6A03F02003002B08D06B
:102A40003B6A03F02003002B03D0786800F0A0FA63
:102A50007DE1BB69002B00F0B180FB6903F001034D
:102A6000002B05D13B6A03F49073002B00F0A68085
:102A70007B6A03F00103002B0AD03B6A03F48073E6
:102A8000002B05D07B681B6C43F001027B681A6445
:102A90007B6A03F00403002B0AD0FB6903F00103F7
:102AA000002B05D07B681B6C43F002027B681A6424
:102AB0007B6A03F00203002B0AD0FB6903F00103D9
:102AC000002B05D07B681B6C43F004027B681A6402
:102AD0007B6A03F00803002B0FD03B6A03F020034E
:102AE000002B04D1FB6903F00103002B05D07B68A8
:102AF0001B6C43F008027B681A647B681B6C002B1C
:102B000000F020817B6A03F02003002B07D03B6A92
:102B100003F02003002B02D0786800F039FA7B68BC
:102B20001B685B6903F04003402B0CBF01230023AB
:102B3000DBB27B617B681B6C03F00803002B02D1C6
:102B40007B69002B31D0786800F07AF97B681B68CC
:102B50005B6903F04003402B23D17B681B687A68D4
:102B60001268526922F040025A617B689B6B002B0D
:102B700013D07B689B6B774A1A657B689B6B184602
:102B8000FFF735F80346002B16D07B689B6B1B6D57
:102B90007A68926B104698470EE0786800F0F0F87B
:102BA0000AE0786800F0ECF806E0786800F0E8F8F1
:102BB0007B6800221A64C5E000BFC3E07B681B6B22
:102BC000012B40F0A2807B6A03F01003002B00F081
:102BD0009C803B6A03F01003002B00F096800023DA
:102BE000FB607B681B681B68FB607B681B685B681D
:102BF000FB60FB687B681B685B6903F04003402B4C
:102C00004FD17B689B6B1B685B687B827B8A002B48
:102C100000F09A807B689B8D7A8A9A4280F094803B
:102C20007B687A8ADA857B689B6BDB69B3F5807F8A
:102C30002BD07B681B687A681268D26822F4807295
:102C4000DA607B681B687A681268526922F00102B8
:102C50005A617B681B687A681268526922F04002E8
:102C60005A617B68202283F83E207B6800221A6329
:102C70007B681B687A681268D26822F01002DA60FA
:102C80007B689B6B1846FEF742FF7B689A8D7B68DA
:102C9000DB8D9BB2D31A9BB21946786800F07AF8A4
:102CA00052E07B689A8D7B68DB8D9BB2D31A3B82A6
:102CB0007B68DB8D9BB2002B48D03B8A002B45D034
:102CC0007B681B687A681268D26822F49072DA60B6
:102CD0007B681B687A681268526922F001025A61A7
:102CE0007B68202283F83E207B6800221A637B6881
:102CF0001B687A681268D26822F01002DA603B8A98
:102D00001946786800F046F820E07B6A03F08003FB
:102D1000002B08D03B6A03F08003002B03D07868B7
:102D200000F0CFF813E07B6A03F04003002B0ED0D5
:102D30003B6A03F04003002B09D0786800F010F9DB
:102D400000BF04E000BF02E000BF00E000BF283782
:102D5000BD4680BD9B2E000880B483B000AF786074
:102D600000BF0C37BD465DF8047B704780B483B06C
:102D700000AF786000BF0C37BD465DF8047B70473C
:102D800080B483B000AF786000BF0C37BD465DF8FB
:102D9000047B704780B483B000AF78600B467B80C3
:102DA00000BF0C37BD465DF8047B704780B584B02A
:102DB00000AFF860B9603B601346FB712CE0BB6963
:102DC000B3F1FF3F28D0BB69002B07D0FEF738F8DE
:102DD00002463B68D21ABB699A421DD9FB681B6840
:102DE000FA681268D26822F4D072DA60FB681B6855
:102DF000FA681268526922F001025A61FB682022C7
:102E000083F83D20FB68202283F83E20FB680022E7
:102E100083F83C2003230FE0FB681B681A68BB683B
:102E20001A40BB689A420CBF01230023DBB21A464A
:102E3000FB799A42C3D0002318461037BD4680BDA7
:102E400080B483B000AF78607B681B687A681268D2
:102E5000D26822F49072DA607B681B687A68126824
:102E6000526922F001025A617B681B6B012B07D16A
:102E70007B681B687A681268D26822F01002DA60F8
:102E80007B68202283F83E207B6800221A6300BF03
:102E90000C37BD465DF8047B704780B584B000AF49
:102EA00078607B689B6BFB60FB680022DA85FB68BF
:102EB0000022DA84F868FFF763FF00BF1037BD46D1
:102EC00080BD80B485B000AF78607B6893F83D30FA
:102ED000DBB2212B3DD17B689B68B3F5805F13D1BA
:102EE0007B681B69002B0FD17B681B6AFB607B68CA
:102EF0001B68FA681288C2F308025A607B681B6A72
:102F00009A1C7B681A6208E07B681A687B681B6AF7
:102F1000581C796808621B7853607B68DB8C9BB215
:102F2000013B9BB27A681946D184002B0FD17B6894
:102F30001B687A681268D26822F08002DA607B68C7
:102F40001B687A681268D26842F04002DA60002397
:102F500000E0022318461437BD465DF8047B704735
:102F600080B582B000AF78607B681B687A681268B1
:102F7000D26822F04002DA607B68202283F83D208C
:102F80007868FFF7E9FE002318460837BD4680BD84
:102F900080B584B000AF78607B6893F83E30DBB2D8
:102FA000222B40F087807B689B68B3F5805F17D148
:102FB0007B681B69002B13D10023FB607B689B6A35
:102FC000BB607B681B685B689BB2C3F308039AB263
:102FD000BB681A807B689B6A9A1C7B689A6226E0B1
:102FE0007B689B6AFB600023BB607B689B68B3F5D2
:102FF000805F07D07B689B68002B0AD17B681B69C8
:10300000002B06D17B681B685B68DAB2FB681A701C
:1030100008E07B681B685B68DBB203F07F03DAB211
:10302000FB681A707B689B6A5A1C7B689A627B6893
:10303000DB8D9BB2013B9BB27A681946D185002B90
:1030400036D17B681B687A681268D26822F0200249
:10305000DA607B681B687A681268D26822F4807232
:10306000DA607B681B687A681268526922F0010294
:103070005A617B68202283F83E207B681B6B012B02
:103080000ED17B681B687A681268D26822F0100241
:10309000DA607B689B8D19467868FFF77BFE02E05B
:1030A0007868FFF763FE7B6800221A63002302E062
:1030B000002300E0022318461037BD4680BD000003
:1030C0002DE9F04F91B000AF78637B6B19687B6B93
:1030D0001B681B6923F440527B6BDB6813430B6155
:1030E0007B6B9A687B6B1B691A437B6B5B691A432A
:1030F0007B6BDB691343BB637B6B19687B6B1B6862
:10310000DB6823F4164222F00C02BB6B1343CB6046
:103110007B6B19687B6B1B685B6923F440727B6B6C
:103120009B6913434B617B6B1A68BA4B9A4204D07C
:103130007B6B1A68B84B9A4203D1FFF76FFBF863B9
:1031400002E0FFF757FBF8637B6BDB69B3F5004FD9
:1031500040F0A7807B6B1A68BA62FB6B19464FF090
:1031600000020B461446DB1844EB04045B1844EBE6
:103170000204E0007861786940EA53707861DB000E
:103180003B61D7E904345D1844EB0206284631461A
:103190007B6B5B684FF00004DB1844EB04041A46B9
:1031A0002346FDF76DF803460C461A469B4BA3FBDE
:1031B00002235B091E01FB6B19464FF000020B4610
:1031C0001446DB1844EB04045B1844EB02044FEA9A
:1031D000C40B4BEA537B4FEAC30A53465C4613EBDE
:1031E000010A44EB020B504659467B6B5B684FF07B
:1031F0000004DB1844EB04041A462346FDF740F8AC
:1032000003460C461A46854BA3FB02135B09642157
:1032100001FB03F3D31ADB003233804AA2FB032302
:103220005B095B0003F4F8731E44FB6B19464FF017
:1032300000020B461446DB1844EB04045B1844EB15
:1032400002044FEAC40949EA53794FEAC3084346E6
:103250004C4613EB010844EB0209404649467B6BA0
:103260005B684FF00004DB1844EB04041A46234665
:10327000FDF706F803460C461A46684BA3FB0213FB
:103280005B09642101FB03F3D31ADB003233634A89
:10329000A2FB03235B0903F007033344BA6A93607C
:1032A000B3E07B6B1B683B61FB6B19464FF0000280
:1032B0000B461446DB1844EB04045B1844EB020491
:1032C000E60046EA5376DD002B4634465D1844EBB3
:1032D0000206284631467B6B5B684FF00004A50070
:1032E000FD62FD6A45EA9375FD629C00BC62D7E908
:1032F0000A23FCF7C5FF03460C461A46474BA3FBBF
:1033000002135B091D01FB6B19464FF000020B46CF
:103310001446DB1844EB04045B1844EB0204E000A1
:10332000F860F86840EA5370F860D800B860D7E9F0
:10333000023413EB010844EB0209404649467B6B1B
:103340005B684FF00004A6007E627E6A46EA9376D0
:103350007E629C003C62D7E90823FCF791FF03469C
:103360000C461A462D4BA3FB02135B09642101FB9B
:1033700003F3D31A1B013233284AA2FB03135B0960
:1033800003F0F0031D44FB6B19464FF000020B469F
:103390001446DB1844EB04045B1844EB0204E00021
:1033A0007860786840EA53707860D800386097E8B1
:1033B000180013EB010844EB0209404649467B6BB9
:1033C0005B684FF00004A600FE61FE6946EA937652
:1033D000FE619C00BC61D7E90623FCF751FF034660
:1033E0000C461A460D4BA3FB02135B09642101FB3B
:1033F00003F3D31A1B013233084AA2FB03135B0900
:1034000003F00F032B443A69936000BF4437BD4675
:10341000BDE8F08F00100140001401401F85EB5102
:10342000DFF834D00D480E490E4A002302E0D4588C
:10343000C4500433C4188C42F9D30B4A0B4C0023FC
:1034400001E013600432A242FBD3FDF781FC00F0DF
:1034500017F8FDF7BBF8704700800120000000203E
:10346000700000202C45000870000020780100202A
:10347000FEE70000014B1868704700BF0C000020F9
:1034800070B50D4E0D4CA41BA4100025A54209D10A
:103490000B4E0C4C00F0D6FFA41BA4100025A54237
:1034A00005D170BD56F8253098470135EEE756F83E
:1034B000253098470135F2E72445000824450008E7
:1034C000244500082845000802440346934200D1E1
:1034D000704703F8011BF9E70FB40A4B13B51C68DA
:1034E00024B1A36913B9204600F0B6F905AB049ADC
:1034F000A1680193204600F07BFB02B0BDE81040BC
:1035000004B070470C00002000294FF480630CBF0A
:103510000222002200F000B82DE9F7431D46514B6E
:103520001E6804460F46904626B1B36913B930466B
:1035300000F092F94C4B9C4252D17468B8F1020FE2
:1035400006D0B8F1010F00F28980002DC0F286800C
:103550002146304600F016F9616B41B104F1440395
:10356000994202D0304600F06DFA002363630023D5
:10357000A3616360A3891B0603D52169304600F06F
:1035800061FAA38923F44A6323F00303B8F1020F1D
:10359000A3815DD001AB6A462146304600F0E6F9D2
:1035A000A3891843A0812DBB009D284600F042FA54
:1035B000074600284ED1DDF80090A9453CD14FF0D8
:1035C000FF30A38943F00203A3810023A36004F129
:1035D0004703236023610123636103B0BDE8F083E7
:1035E000224B9C4201D1B468A8E7214B9C4208BF02
:1035F000F468A3E7002FD8D0B36913B9304600F0C0
:103600002BF9B8F1010F08BFA389276004BF43F06D
:103610000103A381A389276113F0080065611BD012
:1036200013F0010018BF6D424FF000031DBFA360EF
:10363000A5611846A560D0E7484600F0FBF90746AB
:103640000028BCD0A38943F08003A3814D46D3E773
:103650000020B6E7A946F5E7A060BEE74FF0FF30CF
:10366000BBE700BF0C000020A8440008C8440008C5
:10367000884400088A892DE9F041054610070C4668
:103680005AD44B68002B05DC0B6C002B02DC0020AD
:10369000BDE8F081E66A002EF9D0002312F48052D2
:1036A0002F682B6033D0606DA3895A0705D56368F6
:1036B000C01A636B0BB1236CC01A00230246E66A82
:1036C000216A2846B047431CA38906D129681D29D1
:1036D0004BD82B4ACA40D60747D500226260D9048E
:1036E0002269226004D5421C01D12B6803B96065B0
:1036F000616B2F600029CAD004F14403994202D0C3
:10370000284600F09FF900206063BDE8F081216A3F
:1037100001232846B047411CC6D12B68002BC3D0DB
:103720001D2B01D0162B01D12F60B0E7A38943F0E8
:103730004003A381BDE8F0810F69002FA7D0930754
:103740000E6808BF4B690F6018BF0023A6EB07087F
:103750008B60B8F1000F9ADD43463A46216AA66AAB
:103760002846B047002807DCA38943F04003A38123
:103770004FF0FF30BDE8F0810744A8EB0008E8E710
:103780000100402038B50B6905460C46DBB118B185
:1037900083690BB900F060F80C4B9C4209D16C684E
:1037A000B4F90C307BB121462846BDE83840FFF71C
:1037B00061BF074B9C4201D1AC68F1E7054B9C42CD
:1037C00008BFEC68ECE7002038BD00BFA844000843
:1037D000C844000888440008014900F0A9B800BFA7
:1037E00085370008002310B50446036043608360FA
:1037F00081814366C2810361436183611946082266
:103800005C30FFF761FE054B6362054BA362054B1D
:10381000E362054B2462236310BD00BF69410008C9
:103820008B410008C3410008E741000870B54A1EFB
:10383000682555430E4605F1740100F051F9044620
:1038400040B1002180E842000C30A06005F1680220
:10385000FFF73AFE204670BD836910B5044633BBBE
:103860008364C3640365124B124A1B6882629842E8
:1038700004BF0123836100F01FF86060204600F060
:103880001BF8A060204600F017F80022E060042139
:103890006068FFF7A7FF01220921A068FFF7A2FFD8
:1038A00002221221E068FFF79DFF0123A36110BDF2
:1038B00084440008D9370008F8B51C4B1E68B3696A
:1038C000074613B93046FFF7C7FF4836B468736838
:1038D000013B03D5336833B13668F7E7B4F90C50D0
:1038E0006DB16834F4E704213846FFF79FFF30607C
:1038F0000028F1D10C233B6004462046F8BD4FF66A
:10390000FF73E3810123A38165662560A56065607F
:1039100025616561A5610822294604F15C00FFF775
:10392000D3FD6563A563A564E564E6E78444000808
:103930002DE9F8438046894600F14804002614B971
:103940003046BDE8F883A5686768013F01D5246863
:10395000F5E7AB89012B07D9B5F90E30013303D058
:1039600029464046C84706436835EEE770B50E461F
:10397000B1F90E10002990B014461D4607DA002355
:103980002B60B3891A0610D44FF480630EE001AAAD
:1039900000F010FD0028F2DB029A02F47042A2F55A
:1039A00000535A425A412A60EEE740230020236028
:1039B00010B070BD8B8973B59D0706460C4607D5C0
:1039C00004F14703236023610123636102B070BDEA
:1039D00001AB6A46FFF7CAFF00990546304600F082
:1039E0007FF848B9B4F90C309A05EFD423F00303FB
:1039F00043F00203A381E3E70D4BB362A389206088
:103A000043F08003A381009B6361019B20615BB154
:103A1000B4F90E10304600F0DFFC28B1A38923F082
:103A2000030343F00103A381A3891D43A581CDE7CF
:103A3000D9370008024B0146186800F051B800BFA2
:103A40000C00002038B50546002945D051F8043C4B
:103A50000C1F002BB8BFE41800F0E0FC1F4A1368ED
:103A6000104633B9636014602846BDE8384000F062
:103A7000D6BCA3420CD921686218934204BF1A68CD
:103A80005B68636004BF521822600460ECE7134671
:103A90005A680AB1A242FAD919685818A0420BD143
:103AA00020680144581882421960DDD110685268BC
:103AB0005A6001441960D7E702D90C232B60D3E781
:103AC000206821188A4204BF11685268626004BFEE
:103AD000091821605C60C7E738BD00BF9000002076
:103AE00070B5CD1C25F0030508350C2D38BF0C250D
:103AF000002D064601DBA94203D90C2333600020C8
:103B000070BD00F08BFC234A1468214691B9224C09
:103B100023681BB9304600F017FB20602946304669
:103B200000F012FB431C26D10C233360304600F01A
:103B300076FCE4E70B685B1B1AD40B2B0FD90B60E8
:103B4000CD50CC18304600F06AFC04F10B00231D68
:103B500020F00700C31A1BD05A42E25070BD8C42BD
:103B60000DBF63684B686360136018BF0C46E9E7DC
:103B70000C464968CAE7C41C24F00304A04205D0DF
:103B8000211A304600F0E0FA0130CDD02560D9E7A7
:103B900070BD00BF90000020940000209368013B9E
:103BA000002B10B4936009DA9469A34202DBCBB214
:103BB0000A2B03D15DF8044B00F01ABB1368581CA4
:103BC00010601970C8B25DF8044B7047F8B506462E
:103BD0000F461446D518AC4201D1002007E03A4602
:103BE00014F8011B3046FFF7D9FF431CF3D1F8BD91
:103BF0002DE9F04F9DB00C4617460393064618B1C9
:103C000083690BB9FFF728FE7C4B9C4257D174683F
:103C1000A38918075DD52369002B5AD00023099387
:103C200020238DF8293030238DF82A304FF0010BF6
:103C3000B846454615F8013B002B55D1B8EB070AAD
:103C40000BD053463A4621463046FFF7BFFF0130BE
:103C500000F0C480099B5344099398F80030002B6E
:103C600000F0BC8000234FF0FF32049307930592CD
:103C700006938DF853301A93052229786048FCF793
:103C8000AFFA05F10108049B002831D1D90644BFE1
:103C900020228DF853201A0744BF2B228DF8532081
:103CA0002A782A2A2CD0079A00210A20A846013512
:103CB00098F80030303B092B6DD971B326E0514B99
:103CC0009C4201D1B468A3E74F4B9C4208BFF46803
:103CD0009EE72146304600F0EFFA00289ED04FF0D4
:103CE000FF301DB0BDE8F08F252BA7D0A846A0E778
:103CF000434A801A0BFA00F0184304904546BBE78C
:103D0000039A111D12680391002A01DB079204E057
:103D1000524243F002030792049398F800302E2B8E
:103D200010D198F801302A2B08F1010137D1039BFB
:103D30001A1D1B680392002BB8BF4FF0FF3308F128
:103D400002080593314D98F8001003222846FCF72D
:103D500047FA40B14023401B03FA00F0049B0343A1
:103D6000049308F1010898F8001029488DF82810EC
:103D7000062208F10107FCF733FA002834D0254B5E
:103D800003BB039B073323F0070308330393099B0B
:103D90004B4409934CE700FB0232012186E70023E4
:103DA000059318460A258846013198F80020303AD4
:103DB000092A03D9002BC5D00590C3E705FB0020D5
:103DC0000123F0E703AB00932246134B04A93046CE
:103DD000AFF30080B0F1FF3F8146D8D1A3895B06E5
:103DE0003FF57DAF09987CE703AB009322460A4B71
:103DF00004A9304600F088F8ECE700BFA8440008AA
:103E0000E8440008C844000888440008EE4400085C
:103E1000F244000800000000CD3B00082DE9F04707
:103E200091461F468A680B69DDF820809342B8BF2F
:103E30001346C9F8003091F8432006460C4612B1EB
:103E40000133C9F800302368990642BFD9F8003021
:103E50000233C9F80030256815F0060507D104F1D2
:103E6000190AE368D9F800209B1A9D4229DB94F8CF
:103E700043302268003318BF012392062ED404F188
:103E8000430239463046C047013021D02368E568F7
:103E9000D9F8002003F00603042B08BFAD1AA3686D
:103EA00022690CBF25EAE57500259342C4BF9B1A21
:103EB000ED184FF000091A344D451BD10020BDE824
:103EC000F0870123524639463046C047013003D1BE
:103ED0004FF0FF30BDE8F0870135C2E7E1185A1C0A
:103EE000302081F84300224494F8451082F84310B2
:103EF0000233C4E70123224639463046C047013029
:103F0000E6D009F10109D7E72DE9F04317460A7E0B
:103F100085B06E2A984606460C460C9B01F1430E6E
:103F200000F0BC801AD8632A2ED00AD8002A00F0EC
:103F3000C880582A00F08A8004F1420584F84220A3
:103F40002AE0642A01D0692AF6D121681A6811F0A2
:103F5000800F23D0111D1960136827E0732A00F029
:103F6000B48008D86F2A2AD0702AE5D10A6842F0B6
:103F700020020A6003E0752A21D0782ADCD1782259
:103F800084F845206E4964E01A6801F14205111D6C
:103F90001960136884F842300123A3E011F0400F48
:103FA00002F104011960D7D0B2F90030002B03DA16
:103FB0002D225B4284F8432062490A2217E02068E0
:103FC000196810F0800F03D0081D18600B6806E018
:103FD00010F0400F01F104001860F7D00B88594928
:103FE0006F2A14BF0A220822002084F84300656863
:103FF000A560002DC0F29C80206820F004002060A5
:10400000002B3FD1002D40F095807546082A0BD13A
:104010002368DA0708D5236962689A42DEBF302335
:1040200005F8013C05F1FF35AEEB05032361CDF842
:1040300000803B4603AA21463046FFF7EFFE0130E1
:1040400055D14FF0FF3005B0BDE8F08381F8452031
:104050003C492268186812F0800F00F104051D60C9
:1040600001D0036802E05506FBD50388D00744BFA2
:1040700042F0200222601BB9226822F02002226056
:104080001022B1E77546B3FBF2F002FB1033CB5CB4
:1040900005F8013D03460028F5D1B7E708681A681E
:1040A000496910F0800F04D0101D18601368196062
:1040B00007E010F0400F02F1040018601368F6D01A
:1040C0001980002323617546B1E71A68111D196034
:1040D0001568626800212846FCF782F808B1401B89
:1040E000606063682361002384F843309FE723699D
:1040F0002A4639463046C0470130A2D023689B0784
:1041000007D5002504F11909E368039A9B1A9D421B
:1041100005DBE068039B9842B8BF184693E701238C
:104120004A4639463046C04701308AD00135EBE770
:10413000002BA7D10B7884F8423004F1420565E7E3
:104140000A450008F944000838B5064C0023054626
:1041500008462360FCF79CFD431C02D1236803B191
:104160002B6038BD7401002010B50C46B1F90E105B
:1041700000F056F90028ABBF636DA3891B1823F428
:104180008053ACBF6365A38110BD2DE9F0411F468C
:104190008B89DB0505460C46164605D50223002211
:1041A000B1F90E1000F028F9A389B4F90E1023F428
:1041B0008053A38132463B462846BDE8F04100F0DB
:1041C00069B810B50C46B1F90E1000F015F9431C92
:1041D000A38915BF606523F4805343F48053A38102
:1041E00018BFA38110BDB1F90E1000F0D3B80000C4
:1041F000F8B50E461446054618B183690BB9FFF7AA
:104200002BFB214B9C422AD16C68A369A360A38934
:104210001A072ED5236963B323692068C01A63691E
:10422000F6B29842374604DB21462846FFF7AAFA41
:1042300028BBA368013BA36023685A1C22601E7040
:1042400063690130984204D0A389DB0719D50A2E8F
:1042500017D121462846FFF795FA90B10FE00B4B96
:104260009C4201D1AC68D0E7094B9C4208BFEC6886
:10427000CBE72146284600F01FF80028CCD04FF0AD
:10428000FF373846F8BD00BFA8440008C8440008FE
:104290008844000838B5074C0546084611460022F8
:1042A00022601A46FCF7D7FC431C02D1236803B1F5
:1042B0002B6038BD74010020324B70B51D68064676
:1042C0000C4625B1AB6913B92846FFF7C5FA2E4B4A
:1042D0009C420FD16C68B4F90C309AB215072CD4FB
:1042E000D00611D40922326043F04003A3814FF07D
:1042F000FF3070BD254B9C4201D1AC68EBE7244BED
:104300009C4208BFEC68E6E7510712D5616B41B1EA
:1043100004F14403994202D03046FFF793FB002397
:104320006363A38923F02403A381002363602369CB
:104330002360A38943F00803A38123694BB9A389B0
:1043400003F42073B3F5007F03D021463046FFF716
:1043500031FBA28912F001030CD00023A360636932
:104360005B42A361236953B9B4F90C3013F08000A8
:10437000BAD170BD920758BF6369A360F2E700200D
:10438000F7E700BF0C000020A8440008C84400085C
:104390008844000838B5064C0023054608462360CB
:1043A000FCF7A2FC431C02D1236803B12B6038BD8B
:1043B0007401002038B5074C002305460846114615
:1043C0002360FCF79DFC431C02D1236803B12B60E2
:1043D00038BD00BF7401002038B5064C00230546E7
:1043E00008462360FCF79CFC431C02D1236803B100
:1043F0002B6038BD7401002038B5074C05460846CF
:104400001146002222601A46FCF795FC431C02D19B
:10441000236803B12B6038BD7401002070477047DA
:1044200038B5074C054608461146002222601A4658
:10443000FCF7F4FB431C02D1236803B12B6038BDA9
:1044400074010020F8B500BFF8BC08BC9E46704758
:0C445000F8B500BFF8BC08BC9E467047E1
:10445C00766F6C313A2564007EFF0601000000EF98
:10446C000000000000000000010203040607080918
:10447C0000000000010203041000002000000000F6
:10448C000000000000000000000000000000000020
:10449C000000000000000000000000000000000010
:1044AC000000000000000000000000000000000000
:1044BC0000000000000000000000000000000000F0
:1044CC0000000000000000000000000000000000E0
:1044DC00000000000000000000000000232D302B25
:1044EC002000686C4C0065666745464700303132E9
:1044FC003334353637383941424344454600303140
:10450C00323334353637383961626364656600009E
:08451C0094BDFF7F01000000C7
:04452400C5010008C5
:04452800A1010008E5
:10452C000024F40010000000010000001000002026
:10453C0000000000A8440008C84400088844000893
:10454C00000000000000000000000000000000005F
:10455C00000000000000000000000000000000004F
:10456C00000000000000000000000000000000003F
:10457C00000000000000000000000000000000002F
:10458C00000000000000000000000000000000001F
:04000005080034219A
:00000001FF
